{
  "contractName": "Dex",
  "abi": [
    {
      "anonymous": false,
      "inputs": [
        {
          "indexed": true,
          "internalType": "address",
          "name": "previousOwner",
          "type": "address"
        },
        {
          "indexed": true,
          "internalType": "address",
          "name": "newOwner",
          "type": "address"
        }
      ],
      "name": "OwnershipTransferred",
      "type": "event"
    },
    {
      "anonymous": false,
      "inputs": [
        {
          "indexed": false,
          "internalType": "address",
          "name": "_tokenOwner",
          "type": "address"
        },
        {
          "indexed": false,
          "internalType": "uint256",
          "name": "_balance",
          "type": "uint256"
        }
      ],
      "name": "checkTokenBalance",
      "type": "event"
    },
    {
      "inputs": [
        {
          "internalType": "bytes32",
          "name": "_ticker",
          "type": "bytes32"
        },
        {
          "internalType": "address",
          "name": "_tokenAddress",
          "type": "address"
        }
      ],
      "name": "addToken",
      "outputs": [],
      "stateMutability": "nonpayable",
      "type": "function"
    },
    {
      "inputs": [
        {
          "internalType": "address",
          "name": "",
          "type": "address"
        },
        {
          "internalType": "bytes32",
          "name": "",
          "type": "bytes32"
        }
      ],
      "name": "balances",
      "outputs": [
        {
          "internalType": "uint256",
          "name": "",
          "type": "uint256"
        }
      ],
      "stateMutability": "view",
      "type": "function",
      "constant": true
    },
    {
      "inputs": [
        {
          "internalType": "bytes32",
          "name": "_ticker",
          "type": "bytes32"
        },
        {
          "internalType": "uint256",
          "name": "_amount",
          "type": "uint256"
        }
      ],
      "name": "deposit",
      "outputs": [],
      "stateMutability": "nonpayable",
      "type": "function"
    },
    {
      "inputs": [],
      "name": "owner",
      "outputs": [
        {
          "internalType": "address",
          "name": "",
          "type": "address"
        }
      ],
      "stateMutability": "view",
      "type": "function",
      "constant": true
    },
    {
      "inputs": [],
      "name": "renounceOwnership",
      "outputs": [],
      "stateMutability": "nonpayable",
      "type": "function"
    },
    {
      "inputs": [
        {
          "internalType": "uint256",
          "name": "",
          "type": "uint256"
        }
      ],
      "name": "tokenList",
      "outputs": [
        {
          "internalType": "bytes32",
          "name": "",
          "type": "bytes32"
        }
      ],
      "stateMutability": "view",
      "type": "function",
      "constant": true
    },
    {
      "inputs": [
        {
          "internalType": "bytes32",
          "name": "",
          "type": "bytes32"
        }
      ],
      "name": "tokenMapping",
      "outputs": [
        {
          "internalType": "bytes32",
          "name": "ticker",
          "type": "bytes32"
        },
        {
          "internalType": "address",
          "name": "tokenAddress",
          "type": "address"
        }
      ],
      "stateMutability": "view",
      "type": "function",
      "constant": true
    },
    {
      "inputs": [
        {
          "internalType": "address",
          "name": "newOwner",
          "type": "address"
        }
      ],
      "name": "transferOwnership",
      "outputs": [],
      "stateMutability": "nonpayable",
      "type": "function"
    },
    {
      "inputs": [
        {
          "internalType": "bytes32",
          "name": "_ticker",
          "type": "bytes32"
        },
        {
          "internalType": "uint256",
          "name": "_amount",
          "type": "uint256"
        }
      ],
      "name": "withdraw",
      "outputs": [],
      "stateMutability": "nonpayable",
      "type": "function"
    },
    {
      "inputs": [],
      "name": "depositEth",
      "outputs": [],
      "stateMutability": "payable",
      "type": "function",
      "payable": true
    },
    {
      "inputs": [
        {
          "internalType": "bytes32",
          "name": "_ticker",
          "type": "bytes32"
        },
        {
          "internalType": "enum Dex.Side",
          "name": "_side",
          "type": "uint8"
        }
      ],
      "name": "getOrderBook",
      "outputs": [
        {
          "components": [
            {
              "internalType": "uint256",
              "name": "id",
              "type": "uint256"
            },
            {
              "internalType": "address",
              "name": "trader",
              "type": "address"
            },
            {
              "internalType": "bytes32",
              "name": "ticker",
              "type": "bytes32"
            },
            {
              "internalType": "enum Dex.Side",
              "name": "orderSide",
              "type": "uint8"
            },
            {
              "internalType": "uint256",
              "name": "amount",
              "type": "uint256"
            },
            {
              "internalType": "uint256",
              "name": "price",
              "type": "uint256"
            }
          ],
          "internalType": "struct Dex.Order[]",
          "name": "",
          "type": "tuple[]"
        }
      ],
      "stateMutability": "view",
      "type": "function",
      "constant": true
    },
    {
      "inputs": [
        {
          "internalType": "bytes32",
          "name": "_ticker",
          "type": "bytes32"
        },
        {
          "internalType": "enum Dex.Side",
          "name": "_orderSide",
          "type": "uint8"
        },
        {
          "internalType": "uint256",
          "name": "_amount",
          "type": "uint256"
        },
        {
          "internalType": "uint256",
          "name": "_price",
          "type": "uint256"
        }
      ],
      "name": "createLimitOrder",
      "outputs": [],
      "stateMutability": "payable",
      "type": "function",
      "payable": true
    }
  ],
  "bytecode": "0x608060405234801561001057600080fd5b5061002d61002261003260201b60201c565b61003a60201b60201c565b6100fe565b600033905090565b60008060009054906101000a900473ffffffffffffffffffffffffffffffffffffffff169050816000806101000a81548173ffffffffffffffffffffffffffffffffffffffff021916908373ffffffffffffffffffffffffffffffffffffffff1602179055508173ffffffffffffffffffffffffffffffffffffffff168173ffffffffffffffffffffffffffffffffffffffff167f8be0079c531659141344cd1fd0a4f28419497f9722a3daafe3b4186f6b6457e060405160405180910390a35050565b611c138061010d6000396000f3fe6080604052600436106100a75760003560e01c80638da5cb5b116100645780638da5cb5b1461019a5780639776aacf146101c55780639ead7222146101ee578063ba58ea681461022b578063ed25c4d314610268578063f2fde38b14610284576100a7565b8063040cf020146100ac5780631de26e16146100d55780631f14df69146100fe578063439370b11461013b578063667cb4ba14610145578063715018a614610183575b600080fd5b3480156100b857600080fd5b506100d360048036038101906100ce91906113fd565b6102ad565b005b3480156100e157600080fd5b506100fc60048036038101906100f791906113fd565b610565565b005b34801561010a57600080fd5b506101256004803603810190610120919061127c565b61088d565b6040516101329190611821565b60405180910390f35b6101436108b2565b005b34801561015157600080fd5b5061016c600480360381019061016791906112e9565b6109ab565b60405161017a929190611758565b60405180910390f35b34801561018f57600080fd5b506101986109ef565b005b3480156101a657600080fd5b506101af610a77565b6040516101bc91906116a0565b60405180910390f35b3480156101d157600080fd5b506101ec60048036038101906101e79190611316565b610aa0565b005b3480156101fa57600080fd5b506102156004803603810190610210919061143d565b610bdb565b604051610222919061173d565b60405180910390f35b34801561023757600080fd5b50610252600480360381019061024d9190611356565b610bff565b60405161025f919061171b565b60405180910390f35b610282600480360381019061027d9190611396565b610d60565b005b34801561029057600080fd5b506102ab60048036038101906102a6919061124f565b610fcb565b005b600073ffffffffffffffffffffffffffffffffffffffff166001600084815260200190815260200160002060010160009054906101000a900473ffffffffffffffffffffffffffffffffffffffff1673ffffffffffffffffffffffffffffffffffffffff161415610353576040517f08c379a000000000000000000000000000000000000000000000000000000000815260040161034a90611801565b60405180910390fd5b80600360003373ffffffffffffffffffffffffffffffffffffffff1673ffffffffffffffffffffffffffffffffffffffff16815260200190815260200160002060008481526020019081526020016000205410156103e6576040517f08c379a00000000000000000000000000000000000000000000000000000000081526004016103dd906117c1565b60405180910390fd5b61044981600360003373ffffffffffffffffffffffffffffffffffffffff1673ffffffffffffffffffffffffffffffffffffffff1681526020019081526020016000206000858152602001908152602001600020546110c390919063ffffffff16565b600360003373ffffffffffffffffffffffffffffffffffffffff1673ffffffffffffffffffffffffffffffffffffffff1681526020019081526020016000206000848152602001908152602001600020819055506001600083815260200190815260200160002060010160009054906101000a900473ffffffffffffffffffffffffffffffffffffffff1673ffffffffffffffffffffffffffffffffffffffff1663a9059cbb33836040518363ffffffff1660e01b815260040161050e9291906116f2565b602060405180830381600087803b15801561052857600080fd5b505af115801561053c573d6000803e3d6000fd5b505050506040513d601f19601f8201168201806040525081019061056091906112bc565b505050565b600073ffffffffffffffffffffffffffffffffffffffff166001600084815260200190815260200160002060010160009054906101000a900473ffffffffffffffffffffffffffffffffffffffff1673ffffffffffffffffffffffffffffffffffffffff16141561060b576040517f08c379a000000000000000000000000000000000000000000000000000000000815260040161060290611801565b60405180910390fd5b806001600084815260200190815260200160002060010160009054906101000a900473ffffffffffffffffffffffffffffffffffffffff1673ffffffffffffffffffffffffffffffffffffffff166370a08231336040518263ffffffff1660e01b815260040161067b91906116a0565b60206040518083038186803b15801561069357600080fd5b505afa1580156106a7573d6000803e3d6000fd5b505050506040513d601f19601f820116820180604052508101906106cb919061146a565b101561070c576040517f08c379a0000000000000000000000000000000000000000000000000000000008152600401610703906117c1565b60405180910390fd5b61076f81600360003373ffffffffffffffffffffffffffffffffffffffff1673ffffffffffffffffffffffffffffffffffffffff1681526020019081526020016000206000858152602001908152602001600020546110d990919063ffffffff16565b600360003373ffffffffffffffffffffffffffffffffffffffff1673ffffffffffffffffffffffffffffffffffffffff1681526020019081526020016000206000848152602001908152602001600020819055506001600083815260200190815260200160002060010160009054906101000a900473ffffffffffffffffffffffffffffffffffffffff1673ffffffffffffffffffffffffffffffffffffffff166323b872dd3330846040518463ffffffff1660e01b8152600401610836939291906116bb565b602060405180830381600087803b15801561085057600080fd5b505af1158015610864573d6000803e3d6000fd5b505050506040513d601f19601f8201168201806040525081019061088891906112bc565b505050565b6003602052816000526040600020602052806000526040600020600091509150505481565b61093534600360003373ffffffffffffffffffffffffffffffffffffffff1673ffffffffffffffffffffffffffffffffffffffff16815260200190815260200160002060007f45544800000000000000000000000000000000000000000000000000000000008152602001908152602001600020546110d990919063ffffffff16565b600360003373ffffffffffffffffffffffffffffffffffffffff1673ffffffffffffffffffffffffffffffffffffffff16815260200190815260200160002060007f4554480000000000000000000000000000000000000000000000000000000000815260200190815260200160002081905550565b60016020528060005260406000206000915090508060000154908060010160009054906101000a900473ffffffffffffffffffffffffffffffffffffffff16905082565b6109f76110ef565b73ffffffffffffffffffffffffffffffffffffffff16610a15610a77565b73ffffffffffffffffffffffffffffffffffffffff1614610a6b576040517f08c379a0000000000000000000000000000000000000000000000000000000008152600401610a62906117e1565b60405180910390fd5b610a7560006110f7565b565b60008060009054906101000a900473ffffffffffffffffffffffffffffffffffffffff16905090565b610aa86110ef565b73ffffffffffffffffffffffffffffffffffffffff16610ac6610a77565b73ffffffffffffffffffffffffffffffffffffffff1614610b1c576040517f08c379a0000000000000000000000000000000000000000000000000000000008152600401610b13906117e1565b60405180910390fd5b600282908060018154018082558091505060019003906000526020600020016000909190919091505560405180604001604052808381526020018273ffffffffffffffffffffffffffffffffffffffff16815250600160008481526020019081526020016000206000820151816000015560208201518160010160006101000a81548173ffffffffffffffffffffffffffffffffffffffff021916908373ffffffffffffffffffffffffffffffffffffffff1602179055509050505050565b60028181548110610beb57600080fd5b906000526020600020016000915090505481565b6060600460008481526020019081526020016000206000836001811115610c2957610c28611a10565b5b6001811115610c3b57610c3a611a10565b5b8152602001908152602001600020805480602002602001604051908101604052809291908181526020016000905b82821015610d5457838290600052602060002090600602016040518060c0016040529081600082015481526020016001820160009054906101000a900473ffffffffffffffffffffffffffffffffffffffff1673ffffffffffffffffffffffffffffffffffffffff1673ffffffffffffffffffffffffffffffffffffffff168152602001600282015481526020016003820160009054906101000a900460ff166001811115610d1b57610d1a611a10565b5b6001811115610d2d57610d2c611a10565b5b81526020016004820154815260200160058201548152505081526020019060010190610c69565b50505050905092915050565b60006001811115610d7457610d73611a10565b5b836001811115610d8757610d86611a10565b5b1415610e5757610da081836111bb90919063ffffffff16565b600360003373ffffffffffffffffffffffffffffffffffffffff1673ffffffffffffffffffffffffffffffffffffffff16815260200190815260200160002060007f45544800000000000000000000000000000000000000000000000000000000008152602001908152602001600020541015610e52576040517f08c379a0000000000000000000000000000000000000000000000000000000008152600401610e49906117a1565b60405180910390fd5b610f24565b7fe77931aa6a78287a14c12b06db44e051323c91565428b0f5749fc1d2ad9285583383604051610e889291906116f2565b60405180910390a181600360003373ffffffffffffffffffffffffffffffffffffffff1673ffffffffffffffffffffffffffffffffffffffff1681526020019081526020016000206000868152602001908152602001600020541015610f23576040517f08c379a0000000000000000000000000000000000000000000000000000000008152600401610f1a906117c1565b60405180910390fd5b5b6040518060c00160405280600460008781526020019081526020016000206000866001811115610f5757610f56611a10565b5b6001811115610f6957610f68611a10565b5b81526020019081526020016000208054905081526020013373ffffffffffffffffffffffffffffffffffffffff168152602001858152602001846001811115610fb557610fb4611a10565b5b8152602001838152602001828152505050505050565b610fd36110ef565b73ffffffffffffffffffffffffffffffffffffffff16610ff1610a77565b73ffffffffffffffffffffffffffffffffffffffff1614611047576040517f08c379a000000000000000000000000000000000000000000000000000000000815260040161103e906117e1565b60405180910390fd5b600073ffffffffffffffffffffffffffffffffffffffff168173ffffffffffffffffffffffffffffffffffffffff1614156110b7576040517f08c379a00000000000000000000000000000000000000000000000000000000081526004016110ae90611781565b60405180910390fd5b6110c0816110f7565b50565b600081836110d19190611936565b905092915050565b600081836110e79190611886565b905092915050565b600033905090565b60008060009054906101000a900473ffffffffffffffffffffffffffffffffffffffff169050816000806101000a81548173ffffffffffffffffffffffffffffffffffffffff021916908373ffffffffffffffffffffffffffffffffffffffff1602179055508173ffffffffffffffffffffffffffffffffffffffff168173ffffffffffffffffffffffffffffffffffffffff167f8be0079c531659141344cd1fd0a4f28419497f9722a3daafe3b4186f6b6457e060405160405180910390a35050565b600081836111c991906118dc565b905092915050565b6000813590506111e081611b71565b92915050565b6000815190506111f581611b88565b92915050565b60008135905061120a81611b9f565b92915050565b60008135905061121f81611bb6565b92915050565b60008135905061123481611bc6565b92915050565b60008151905061124981611bc6565b92915050565b60006020828403121561126557611264611a3f565b5b6000611273848285016111d1565b91505092915050565b6000806040838503121561129357611292611a3f565b5b60006112a1858286016111d1565b92505060206112b2858286016111fb565b9150509250929050565b6000602082840312156112d2576112d1611a3f565b5b60006112e0848285016111e6565b91505092915050565b6000602082840312156112ff576112fe611a3f565b5b600061130d848285016111fb565b91505092915050565b6000806040838503121561132d5761132c611a3f565b5b600061133b858286016111fb565b925050602061134c858286016111d1565b9150509250929050565b6000806040838503121561136d5761136c611a3f565b5b600061137b858286016111fb565b925050602061138c85828601611210565b9150509250929050565b600080600080608085870312156113b0576113af611a3f565b5b60006113be878288016111fb565b94505060206113cf87828801611210565b93505060406113e087828801611225565b92505060606113f187828801611225565b91505092959194509250565b6000806040838503121561141457611413611a3f565b5b6000611422858286016111fb565b925050602061143385828601611225565b9150509250929050565b60006020828403121561145357611452611a3f565b5b600061146184828501611225565b91505092915050565b6000602082840312156114805761147f611a3f565b5b600061148e8482850161123a565b91505092915050565b60006114a38383611607565b60c08301905092915050565b6114b88161196a565b82525050565b6114c78161196a565b82525050565b60006114d88261184c565b6114e28185611864565b93506114ed8361183c565b8060005b8381101561151e5781516115058882611497565b975061151083611857565b9250506001810190506114f1565b5085935050505092915050565b61153481611988565b82525050565b61154381611988565b82525050565b611552816119cf565b82525050565b6000611565602683611875565b915061157082611a44565b604082019050919050565b6000611588601a83611875565b915061159382611a93565b602082019050919050565b60006115ab601a83611875565b91506115b682611abc565b602082019050919050565b60006115ce602083611875565b91506115d982611ae5565b602082019050919050565b60006115f1602683611875565b91506115fc82611b0e565b604082019050919050565b60c08201600082015161161d6000850182611682565b50602082015161163060208501826114af565b506040820151611643604085018261152b565b5060608201516116566060850182611549565b5060808201516116696080850182611682565b5060a082015161167c60a0850182611682565b50505050565b61168b816119c5565b82525050565b61169a816119c5565b82525050565b60006020820190506116b560008301846114be565b92915050565b60006060820190506116d060008301866114be565b6116dd60208301856114be565b6116ea6040830184611691565b949350505050565b600060408201905061170760008301856114be565b6117146020830184611691565b9392505050565b6000602082019050818103600083015261173581846114cd565b905092915050565b6000602082019050611752600083018461153a565b92915050565b600060408201905061176d600083018561153a565b61177a60208301846114be565b9392505050565b6000602082019050818103600083015261179a81611558565b9050919050565b600060208201905081810360008301526117ba8161157b565b9050919050565b600060208201905081810360008301526117da8161159e565b9050919050565b600060208201905081810360008301526117fa816115c1565b9050919050565b6000602082019050818103600083015261181a816115e4565b9050919050565b60006020820190506118366000830184611691565b92915050565b6000819050602082019050919050565b600081519050919050565b6000602082019050919050565b600082825260208201905092915050565b600082825260208201905092915050565b6000611891826119c5565b915061189c836119c5565b9250827fffffffffffffffffffffffffffffffffffffffffffffffffffffffffffffffff038211156118d1576118d06119e1565b5b828201905092915050565b60006118e7826119c5565b91506118f2836119c5565b9250817fffffffffffffffffffffffffffffffffffffffffffffffffffffffffffffffff048311821515161561192b5761192a6119e1565b5b828202905092915050565b6000611941826119c5565b915061194c836119c5565b92508282101561195f5761195e6119e1565b5b828203905092915050565b6000611975826119a5565b9050919050565b60008115159050919050565b6000819050919050565b60008190506119a082611b5d565b919050565b600073ffffffffffffffffffffffffffffffffffffffff82169050919050565b6000819050919050565b60006119da82611992565b9050919050565b7f4e487b7100000000000000000000000000000000000000000000000000000000600052601160045260246000fd5b7f4e487b7100000000000000000000000000000000000000000000000000000000600052602160045260246000fd5b600080fd5b7f4f776e61626c653a206e6577206f776e657220697320746865207a65726f206160008201527f6464726573730000000000000000000000000000000000000000000000000000602082015250565b7f457468657220616d6f756e7420696e73756666696369656e7421000000000000600082015250565b7f546f6b656e20616d6f756e7420696e73756666696369656e7421000000000000600082015250565b7f4f776e61626c653a2063616c6c6572206973206e6f7420746865206f776e6572600082015250565b7f546f6b656e207469636b6572206e6f74207265676973746572656420696e207760008201527f616c6c6574210000000000000000000000000000000000000000000000000000602082015250565b60028110611b6e57611b6d611a10565b5b50565b611b7a8161196a565b8114611b8557600080fd5b50565b611b918161197c565b8114611b9c57600080fd5b50565b611ba881611988565b8114611bb357600080fd5b50565b60028110611bc357600080fd5b50565b611bcf816119c5565b8114611bda57600080fd5b5056fea2646970667358221220aea4b0eafdcaa2d640b60a551ef5b184592c5fb1b7d5c476e41568302db747cf64736f6c63430008060033",
  "immutableReferences": {},
  "source": "// SPDX-License-Identifier: MIT\n\npragma solidity ^0.8.0;\n\nimport \"./wallet.sol\";\n\ncontract Dex is Wallet {\n    using SafeMath for uint;\n\n    struct Order {\n        uint id;\n        address trader;\n        bytes32 ticker;\n        Side orderSide;\n        uint amount;\n        uint price;\n    }\n\n    enum Side {\n        BUY,\n        SELL\n    }\n\n    event checkTokenBalance(address _tokenOwner, uint _balance);\n\n    mapping(bytes32 => mapping(Side => Order[])) orderBook;\n    // mapping(address => uint) ethBalance;\n\n    function depositEth() public payable {\n        balances[msg.sender][\"ETH\"] = balances[msg.sender][\"ETH\"].add(msg.value);\n    }\n\n    function getOrderBook(bytes32 _ticker, Side _side) public view returns(Order[] memory){\n        return orderBook[_ticker][_side];\n    }\n\n    function createLimitOrder(bytes32 _ticker, Side _orderSide, uint _amount, uint _price) public payable {\n        if (_orderSide == Side.BUY) {\n            require(balances[msg.sender][\"ETH\"] >= _amount.mul(_price), \"Ether amount insufficient!\");\n        } else {\n            emit checkTokenBalance(msg.sender, _amount);\n            require(balances[msg.sender][_ticker] >= _amount, \"Token amount insufficient!\");\n        }\n\n        Order(orderBook[_ticker][_orderSide].length, msg.sender, _ticker, _orderSide, _amount, _price);\n\n        // push order and sort array\n    }\n}\n\n",
  "sourcePath": "/Users/andrew/Desktop/crypto/ethereum-201/dex/contracts/dex.sol",
  "compiler": {
    "name": "solc",
    "version": "0.8.6+commit.11564f7e.Emscripten.clang"
  },
  "schemaVersion": "3.4.1",
  "updatedAt": "2021-07-07T08:38:31.597Z",
  "networkType": "ethereum",
  "devdoc": {
    "kind": "dev",
    "methods": {
      "owner()": {
        "details": "Returns the address of the current owner."
      },
      "renounceOwnership()": {
        "details": "Leaves the contract without owner. It will not be possible to call `onlyOwner` functions anymore. Can only be called by the current owner. NOTE: Renouncing ownership will leave the contract without an owner, thereby removing any functionality that is only available to the owner."
      },
      "transferOwnership(address)": {
        "details": "Transfers ownership of the contract to a new account (`newOwner`). Can only be called by the current owner."
      }
    },
    "version": 1
  },
  "userdoc": {
    "kind": "user",
    "methods": {},
    "version": 1
  }
}