{
  "contractName": "Wallet",
  "abi": [
    {
      "anonymous": false,
      "inputs": [
        {
          "indexed": true,
          "internalType": "address",
          "name": "previousOwner",
          "type": "address"
        },
        {
          "indexed": true,
          "internalType": "address",
          "name": "newOwner",
          "type": "address"
        }
      ],
      "name": "OwnershipTransferred",
      "type": "event"
    },
    {
      "inputs": [
        {
          "internalType": "address",
          "name": "",
          "type": "address"
        },
        {
          "internalType": "bytes32",
          "name": "",
          "type": "bytes32"
        }
      ],
      "name": "balances",
      "outputs": [
        {
          "internalType": "uint256",
          "name": "",
          "type": "uint256"
        }
      ],
      "stateMutability": "view",
      "type": "function",
      "constant": true
    },
    {
      "inputs": [],
      "name": "owner",
      "outputs": [
        {
          "internalType": "address",
          "name": "",
          "type": "address"
        }
      ],
      "stateMutability": "view",
      "type": "function",
      "constant": true
    },
    {
      "inputs": [],
      "name": "renounceOwnership",
      "outputs": [],
      "stateMutability": "nonpayable",
      "type": "function"
    },
    {
      "inputs": [
        {
          "internalType": "uint256",
          "name": "",
          "type": "uint256"
        }
      ],
      "name": "tokenList",
      "outputs": [
        {
          "internalType": "bytes32",
          "name": "",
          "type": "bytes32"
        }
      ],
      "stateMutability": "view",
      "type": "function",
      "constant": true
    },
    {
      "inputs": [
        {
          "internalType": "bytes32",
          "name": "",
          "type": "bytes32"
        }
      ],
      "name": "tokenMapping",
      "outputs": [
        {
          "internalType": "bytes32",
          "name": "ticker",
          "type": "bytes32"
        },
        {
          "internalType": "address",
          "name": "tokenAddress",
          "type": "address"
        }
      ],
      "stateMutability": "view",
      "type": "function",
      "constant": true
    },
    {
      "inputs": [
        {
          "internalType": "address",
          "name": "newOwner",
          "type": "address"
        }
      ],
      "name": "transferOwnership",
      "outputs": [],
      "stateMutability": "nonpayable",
      "type": "function"
    },
    {
      "inputs": [
        {
          "internalType": "bytes32",
          "name": "_ticker",
          "type": "bytes32"
        },
        {
          "internalType": "address",
          "name": "_tokenAddress",
          "type": "address"
        }
      ],
      "name": "addToken",
      "outputs": [],
      "stateMutability": "nonpayable",
      "type": "function"
    },
    {
      "inputs": [
        {
          "internalType": "bytes32",
          "name": "_ticker",
          "type": "bytes32"
        },
        {
          "internalType": "uint256",
          "name": "_amount",
          "type": "uint256"
        }
      ],
      "name": "deposit",
      "outputs": [],
      "stateMutability": "nonpayable",
      "type": "function"
    },
    {
      "inputs": [
        {
          "internalType": "bytes32",
          "name": "_ticker",
          "type": "bytes32"
        },
        {
          "internalType": "uint256",
          "name": "_amount",
          "type": "uint256"
        }
      ],
      "name": "withdraw",
      "outputs": [],
      "stateMutability": "nonpayable",
      "type": "function"
    }
  ],
  "bytecode": "0x608060405234801561001057600080fd5b5061002d61002261003260201b60201c565b61003a60201b60201c565b6100fe565b600033905090565b60008060009054906101000a900473ffffffffffffffffffffffffffffffffffffffff169050816000806101000a81548173ffffffffffffffffffffffffffffffffffffffff021916908373ffffffffffffffffffffffffffffffffffffffff1602179055508173ffffffffffffffffffffffffffffffffffffffff168173ffffffffffffffffffffffffffffffffffffffff167f8be0079c531659141344cd1fd0a4f28419497f9722a3daafe3b4186f6b6457e060405160405180910390a35050565b6112ca8061010d6000396000f3fe608060405234801561001057600080fd5b50600436106100935760003560e01c8063715018a611610066578063715018a6146101315780638da5cb5b1461013b5780639776aacf146101595780639ead722214610175578063f2fde38b146101a557610093565b8063040cf020146100985780631de26e16146100b45780631f14df69146100d0578063667cb4ba14610100575b600080fd5b6100b260048036038101906100ad9190610d7a565b6101c1565b005b6100ce60048036038101906100c99190610d7a565b610479565b005b6100ea60048036038101906100e59190610ca0565b6107a1565b6040516100f7919061100c565b60405180910390f35b61011a60048036038101906101159190610d0d565b6107c6565b604051610128929190610f63565b60405180910390f35b61013961080a565b005b610143610892565b6040516101509190610ecd565b60405180910390f35b610173600480360381019061016e9190610d3a565b6108bb565b005b61018f600480360381019061018a9190610dba565b6109f6565b60405161019c9190610f48565b60405180910390f35b6101bf60048036038101906101ba9190610c73565b610a1a565b005b600073ffffffffffffffffffffffffffffffffffffffff166001600084815260200190815260200160002060010160009054906101000a900473ffffffffffffffffffffffffffffffffffffffff1673ffffffffffffffffffffffffffffffffffffffff161415610267576040517f08c379a000000000000000000000000000000000000000000000000000000000815260040161025e90610fec565b60405180910390fd5b80600360003373ffffffffffffffffffffffffffffffffffffffff1673ffffffffffffffffffffffffffffffffffffffff16815260200190815260200160002060008481526020019081526020016000205410156102fa576040517f08c379a00000000000000000000000000000000000000000000000000000000081526004016102f190610fac565b60405180910390fd5b61035d81600360003373ffffffffffffffffffffffffffffffffffffffff1673ffffffffffffffffffffffffffffffffffffffff168152602001908152602001600020600085815260200190815260200160002054610b1290919063ffffffff16565b600360003373ffffffffffffffffffffffffffffffffffffffff1673ffffffffffffffffffffffffffffffffffffffff1681526020019081526020016000206000848152602001908152602001600020819055506001600083815260200190815260200160002060010160009054906101000a900473ffffffffffffffffffffffffffffffffffffffff1673ffffffffffffffffffffffffffffffffffffffff1663a9059cbb33836040518363ffffffff1660e01b8152600401610422929190610f1f565b602060405180830381600087803b15801561043c57600080fd5b505af1158015610450573d6000803e3d6000fd5b505050506040513d601f19601f820116820180604052508101906104749190610ce0565b505050565b600073ffffffffffffffffffffffffffffffffffffffff166001600084815260200190815260200160002060010160009054906101000a900473ffffffffffffffffffffffffffffffffffffffff1673ffffffffffffffffffffffffffffffffffffffff16141561051f576040517f08c379a000000000000000000000000000000000000000000000000000000000815260040161051690610fec565b60405180910390fd5b806001600084815260200190815260200160002060010160009054906101000a900473ffffffffffffffffffffffffffffffffffffffff1673ffffffffffffffffffffffffffffffffffffffff166370a08231336040518263ffffffff1660e01b815260040161058f9190610ecd565b60206040518083038186803b1580156105a757600080fd5b505afa1580156105bb573d6000803e3d6000fd5b505050506040513d601f19601f820116820180604052508101906105df9190610de7565b1015610620576040517f08c379a000000000000000000000000000000000000000000000000000000000815260040161061790610fac565b60405180910390fd5b61068381600360003373ffffffffffffffffffffffffffffffffffffffff1673ffffffffffffffffffffffffffffffffffffffff168152602001908152602001600020600085815260200190815260200160002054610b2890919063ffffffff16565b600360003373ffffffffffffffffffffffffffffffffffffffff1673ffffffffffffffffffffffffffffffffffffffff1681526020019081526020016000206000848152602001908152602001600020819055506001600083815260200190815260200160002060010160009054906101000a900473ffffffffffffffffffffffffffffffffffffffff1673ffffffffffffffffffffffffffffffffffffffff166323b872dd3330846040518463ffffffff1660e01b815260040161074a93929190610ee8565b602060405180830381600087803b15801561076457600080fd5b505af1158015610778573d6000803e3d6000fd5b505050506040513d601f19601f8201168201806040525081019061079c9190610ce0565b505050565b6003602052816000526040600020602052806000526040600020600091509150505481565b60016020528060005260406000206000915090508060000154908060010160009054906101000a900473ffffffffffffffffffffffffffffffffffffffff16905082565b610812610b3e565b73ffffffffffffffffffffffffffffffffffffffff16610830610892565b73ffffffffffffffffffffffffffffffffffffffff1614610886576040517f08c379a000000000000000000000000000000000000000000000000000000000815260040161087d90610fcc565b60405180910390fd5b6108906000610b46565b565b60008060009054906101000a900473ffffffffffffffffffffffffffffffffffffffff16905090565b6108c3610b3e565b73ffffffffffffffffffffffffffffffffffffffff166108e1610892565b73ffffffffffffffffffffffffffffffffffffffff1614610937576040517f08c379a000000000000000000000000000000000000000000000000000000000815260040161092e90610fcc565b60405180910390fd5b600282908060018154018082558091505060019003906000526020600020016000909190919091505560405180604001604052808381526020018273ffffffffffffffffffffffffffffffffffffffff16815250600160008481526020019081526020016000206000820151816000015560208201518160010160006101000a81548173ffffffffffffffffffffffffffffffffffffffff021916908373ffffffffffffffffffffffffffffffffffffffff1602179055509050505050565b60028181548110610a0657600080fd5b906000526020600020016000915090505481565b610a22610b3e565b73ffffffffffffffffffffffffffffffffffffffff16610a40610892565b73ffffffffffffffffffffffffffffffffffffffff1614610a96576040517f08c379a0000000000000000000000000000000000000000000000000000000008152600401610a8d90610fcc565b60405180910390fd5b600073ffffffffffffffffffffffffffffffffffffffff168173ffffffffffffffffffffffffffffffffffffffff161415610b06576040517f08c379a0000000000000000000000000000000000000000000000000000000008152600401610afd90610f8c565b60405180910390fd5b610b0f81610b46565b50565b60008183610b20919061108e565b905092915050565b60008183610b369190611038565b905092915050565b600033905090565b60008060009054906101000a900473ffffffffffffffffffffffffffffffffffffffff169050816000806101000a81548173ffffffffffffffffffffffffffffffffffffffff021916908373ffffffffffffffffffffffffffffffffffffffff1602179055508173ffffffffffffffffffffffffffffffffffffffff168173ffffffffffffffffffffffffffffffffffffffff167f8be0079c531659141344cd1fd0a4f28419497f9722a3daafe3b4186f6b6457e060405160405180910390a35050565b600081359050610c1981611238565b92915050565b600081519050610c2e8161124f565b92915050565b600081359050610c4381611266565b92915050565b600081359050610c588161127d565b92915050565b600081519050610c6d8161127d565b92915050565b600060208284031215610c8957610c88611143565b5b6000610c9784828501610c0a565b91505092915050565b60008060408385031215610cb757610cb6611143565b5b6000610cc585828601610c0a565b9250506020610cd685828601610c34565b9150509250929050565b600060208284031215610cf657610cf5611143565b5b6000610d0484828501610c1f565b91505092915050565b600060208284031215610d2357610d22611143565b5b6000610d3184828501610c34565b91505092915050565b60008060408385031215610d5157610d50611143565b5b6000610d5f85828601610c34565b9250506020610d7085828601610c0a565b9150509250929050565b60008060408385031215610d9157610d90611143565b5b6000610d9f85828601610c34565b9250506020610db085828601610c49565b9150509250929050565b600060208284031215610dd057610dcf611143565b5b6000610dde84828501610c49565b91505092915050565b600060208284031215610dfd57610dfc611143565b5b6000610e0b84828501610c5e565b91505092915050565b610e1d816110c2565b82525050565b610e2c816110e0565b82525050565b6000610e3f602683611027565b9150610e4a82611148565b604082019050919050565b6000610e62601a83611027565b9150610e6d82611197565b602082019050919050565b6000610e85602083611027565b9150610e90826111c0565b602082019050919050565b6000610ea8602683611027565b9150610eb3826111e9565b604082019050919050565b610ec78161110a565b82525050565b6000602082019050610ee26000830184610e14565b92915050565b6000606082019050610efd6000830186610e14565b610f0a6020830185610e14565b610f176040830184610ebe565b949350505050565b6000604082019050610f346000830185610e14565b610f416020830184610ebe565b9392505050565b6000602082019050610f5d6000830184610e23565b92915050565b6000604082019050610f786000830185610e23565b610f856020830184610e14565b9392505050565b60006020820190508181036000830152610fa581610e32565b9050919050565b60006020820190508181036000830152610fc581610e55565b9050919050565b60006020820190508181036000830152610fe581610e78565b9050919050565b6000602082019050818103600083015261100581610e9b565b9050919050565b60006020820190506110216000830184610ebe565b92915050565b600082825260208201905092915050565b60006110438261110a565b915061104e8361110a565b9250827fffffffffffffffffffffffffffffffffffffffffffffffffffffffffffffffff0382111561108357611082611114565b5b828201905092915050565b60006110998261110a565b91506110a48361110a565b9250828210156110b7576110b6611114565b5b828203905092915050565b60006110cd826110ea565b9050919050565b60008115159050919050565b6000819050919050565b600073ffffffffffffffffffffffffffffffffffffffff82169050919050565b6000819050919050565b7f4e487b7100000000000000000000000000000000000000000000000000000000600052601160045260246000fd5b600080fd5b7f4f776e61626c653a206e6577206f776e657220697320746865207a65726f206160008201527f6464726573730000000000000000000000000000000000000000000000000000602082015250565b7f546f6b656e20616d6f756e7420696e73756666696369656e7421000000000000600082015250565b7f4f776e61626c653a2063616c6c6572206973206e6f7420746865206f776e6572600082015250565b7f546f6b656e207469636b6572206e6f74207265676973746572656420696e207760008201527f616c6c6574210000000000000000000000000000000000000000000000000000602082015250565b611241816110c2565b811461124c57600080fd5b50565b611258816110d4565b811461126357600080fd5b50565b61126f816110e0565b811461127a57600080fd5b50565b6112868161110a565b811461129157600080fd5b5056fea2646970667358221220dbe9e688735bede2aa09e465c13787532e74e624448e4134dfd952c3a4c79ab864736f6c63430008060033",
  "immutableReferences": {},
  "source": "// SPDX-License-Identifier: MIT\n\npragma solidity ^0.8.0;\n\nimport \"../node_modules/@openzeppelin/contracts/token/ERC20/IERC20.sol\";\nimport \"../node_modules/@openzeppelin/contracts/utils/math/SafeMath.sol\";\nimport \"../node_modules/@openzeppelin/contracts/access/Ownable.sol\";\n\ncontract Wallet is Ownable {\n    using SafeMath for uint;\n\n    struct Token {\n        bytes32 ticker;\n        address tokenAddress;\n    }\n    mapping(bytes32 => Token) public tokenMapping;\n    bytes32[] public tokenList;\n\n    mapping(address => mapping(bytes32 => uint)) public balances;\n\n    function addToken(bytes32 _ticker, address _tokenAddress) public onlyOwner {\n        tokenList.push(_ticker);\n        tokenMapping[_ticker] = Token(_ticker, _tokenAddress);\n    }\n\n    function deposit(bytes32 _ticker, uint _amount) public {\n        require(tokenMapping[_ticker].tokenAddress != address(0), \"Token ticker not registered in wallet!\");\n        require(IERC20(tokenMapping[_ticker].tokenAddress).balanceOf(msg.sender) >= _amount, \"Token amount insufficient!\");\n        \n        balances[msg.sender][_ticker] = balances[msg.sender][_ticker].add(_amount);\n        IERC20(tokenMapping[_ticker].tokenAddress).transferFrom(msg.sender, address(this), _amount);\n    }\n\n    function withdraw(bytes32 _ticker, uint _amount) public {\n        require(tokenMapping[_ticker].tokenAddress != address(0), \"Token ticker not registered in wallet!\");\n        require(balances[msg.sender][_ticker] >= _amount, \"Token amount insufficient!\");\n\n        balances[msg.sender][_ticker] = balances[msg.sender][_ticker].sub(_amount);\n        IERC20(tokenMapping[_ticker].tokenAddress).transfer(msg.sender, _amount);\n    }\n}",
  "sourcePath": "/Users/andrew/Desktop/crypto/ethereum-201/dex/contracts/wallet.sol",
  "compiler": {
    "name": "solc",
    "version": "0.8.6+commit.11564f7e.Emscripten.clang"
  },
  "schemaVersion": "3.4.1",
  "updatedAt": "2021-07-07T08:38:31.389Z",
  "networkType": "ethereum",
  "devdoc": {
    "kind": "dev",
    "methods": {
      "owner()": {
        "details": "Returns the address of the current owner."
      },
      "renounceOwnership()": {
        "details": "Leaves the contract without owner. It will not be possible to call `onlyOwner` functions anymore. Can only be called by the current owner. NOTE: Renouncing ownership will leave the contract without an owner, thereby removing any functionality that is only available to the owner."
      },
      "transferOwnership(address)": {
        "details": "Transfers ownership of the contract to a new account (`newOwner`). Can only be called by the current owner."
      }
    },
    "version": 1
  },
  "userdoc": {
    "kind": "user",
    "methods": {},
    "version": 1
  }
}